202008020010000400000000000000000043000000000000000000438000000000030688293649GD ELEMENTOS PUBLICITARIOS SRL000000003569500000000000000000000000000000000000000000000000000000000000000000000000000000000000000000000000000000000000PES00010000001000000000000000020180802
202008090060000400000000000000000019000000000000000000198700000000000028862511FOLLIS LEANDRO MIGUEL         000000003620000000000000000000000000000000000000000000000000000000000000000000000000000000000000000000000000000000000000PES00010000001000000000000000020180809
202008170010000400000000000000000044000000000000000000448000000000020214438527SUCHUR JUAN ALBERTO           000000005850000000000000000000000000000000000000000000000000000000000000000000000000000000000000000000000000000000000000PES00010000001000000000000000020180817
202008220010000400000000000000000045000000000000000000458000000000030608125201CASA MACCHI S A               000000008409500000000000000000000000000000000000000000000000000000000000000000000000000000000000000000000000000000000000PES00010000001000000000000000020180822
202008220010000400000000000000000046000000000000000000468000000000030608125201CASA MACCHI S A               000000006534000000000000000000000000000000000000000000000000000000000000000000000000000000000000000000000000000000000000PES00010000001000000000000000020180823
202008240060000400000000000000000020000000000000000000209900000000000000000000                              000000000017500000000000000000000000000000000000000000000000000000000000000000000000000000000000000000000000000000000000PES00010000001000000000000000000000000
202008240010000400000000000000000047000000000000000000478000000000030608125201CASA MACCHI S A               000000005989500000000000000000000000000000000000000000000000000000000000000000000000000000000000000000000000000000000000PES00010000001000000000000000020180824
202008240010000400000000000000000048000000000000000000488000000000030608125201CASA MACCHI S A               000000006171000000000000000000000000000000000000000000000000000000000000000000000000000000000000000000000000000000000000PES00010000001000000000000000020180824
202008240010000400000000000000000049000000000000000000498000000000030608125201CASA MACCHI S A               000000005989500000000000000000000000000000000000000000000000000000000000000000000000000000000000000000000000000000000000PES00010000001000000000000000020180830
202008310010000400000000000000000050000000000000000000508000000000030647101964LOGISTICA NAVAL SOCIEDAD ANONI000000001913615000000000000000000000000000000000000000000000000000000000000000000000000000000000000000000000000000000000PES00010000001000000000000000020180831
